:03000000020040BB
:1000400078407400F608F608F608F608F608F67523
:100050008910758D38758B00752300752200752108
:1000600000752000D2ABD2AFD28E78407A2090CFEC
:10007000A0E61198F0EAF4F5907BFF00DBFD85FF28
:100080009008C3EA13FA70E67845E52211A6E52147
:1000900011A6E52011A680D20483223F065B4F669D
:1000A0006D7D077F6F40F9540FF618E9C4540FF6C1
:0200B000182214
:03001B00020100DF
:10010000758B38758D00C0D0C0E00523E523B40A97
:1001100027752300E5227401D4F522B4601A7522F4
:1001200000E5217401D4F521B4600D752100E520AE
:0D0130007401D4F520B42400D0E0D0D0320A
:00000001FF
