:0300000002109F4C
:0C109F00787FE4F6D8FD75810F0210E6A2
:1015A200000100020004000800100020004000803A
:1015B200010002000400080010002000400080002A
:100003004100030041006D0042000600004100046E
:100013000041000200420000000041006E04410064
:020023000500D6
:1016080075A0FFC280D281D28200E5A05480FFC2BB
:01161800824F
:0116190022AE
:1015C200AE07121608EF70FAD280C281C282000002
:0B15D200AF068FA0D2820000C2822270
:1015F300121608EF70FA75A0FFD280D281D2820052
:04160300AFA0C28250
:0116070022C0
:10157300E92480FF1215859000E8E0FF9000E6E083
:021583002FFF38
:10158500AE07121608EF70FAC280C281C28200004F
:0D159500AF068FA00000D2820000C28222AB
:0F0DBD009000E2A3E0FFA3A3E0FD9000D9E0FBCC
:0C0DCC009000E7EBF0A9059000E6EFF0C6
:100DD800C394804003020E84E9C394404003020E8A
:100DE800849000E7E05401F09000E6E0FF540FFE25
:100DF800C3740F9E9000E9F0EFC4540F9000E6F022
:100E0800E9C394209000E850057480F0800374884A
:100E1800F0E9541FF97F361215851215731215F370
:100E2800AD077C001215F3EF7D00FC1215F3EFFD02
:100E3800A3E09000E9B40117E025E024A2F582E4DC
:100E48003415F583E4934CFC7401934DFD801BE04D
:100E580025E024A2F582E43415F583E493FE7401B9
:100E680093F4FFEEF45CFCED5FFD121573ECFF12DA
:0C0E780015C2AF051215C27F301215859F
:010E8400224B
:10152A00EF20E004E4FD80027DFF7F36121585E49A
:10153A00FCECC39409502DE4FBE4FAEB2480FF127F
:10154A001585EA24802CFF121585AF051215C2AF46
:10155A00051215C20AEAB408E20BEBB420DB7408E0
:09156A002CFC80CD7F30021585B8
:1015DD00D2837F301215857F0C1215857F01121570
:0615ED00857F0602158552
:0C161A00759D80E4F5BD75BCEFD2AD22DB
:03002B0002132E8F
:10132E00C0E0C083C082C0D075D00875BCEF9000FD
:10133E006DE0704C900000E0FFA3E0900006CFF04F
:10134E00A3EFF0900006E07002A3E060109000079B
:10135E00E024FFF0900006E034FFF080E6900003FA
:10136E00E02408F582E43400F583E5BDF090000337
:10137E00E004F0E0D394654007E4F090006D04F0D3
:09138E00D0D0D082D083D0E0322F
:10139700AA059000D4EFF0EA04FD7B01120DCC9072
:1013A70000D4E0FFEA2402FD120DCC9000D4E0FF48
:1013B700EA2403FD120DCC9000D4E004FFAD021225
:1013C7000DCC9000D4E004FFEA2404FD120DCC906C
:1013D70000D4E02402FFEA04FD120DCC9000D4E013
:1013E7002402FFEA2402FD120DCC9000D4E024026F
:0813F700FFEA2403FD020DCC06
:1013FF00AA059000D4EFF0EA04FD7B01120DCC900A
:10140F0000D4E0FFEA2404FD120DCC9000D4E004D8
:10141F00FFAD02120DCC9000D4E004FFEA04FD12E0
:10142F000DCC9000D4E004FFEA2402FD120DCC9005
:10143F0000D4E004FFEA2403FD120DCC9000D4E0A9
:10144F0004FFEA2404FD120DCC9000D4E02402FF27
:07145F00EA2404FD020DCC9C
:041011007D0AE4FF71
:10101500AA059000D4EFF07B01120DCC9000D4E02E
:10102500FFEA2402FD120DCC9000D4E0FFEA240370
:10103500FD120DCC9000D4E0FFEA2404FD120DCC86
:101045009000D4E004FFAD02120DCC9000D4E00472
:10105500FFEA2402FD120DCC9000D4E004FFEA243F
:1010650004FD120DCC9000D4E02402FFAD02120D58
:10107500CC9000D4E02402FFEA04FD120DCC9000D0
:10108500D4E02402FFEA2402FD120DCC9000D4E046
:0A1095002402FFEA2404FD020DCC42
:1012BB00AA059000D4EFF07B01120DCC9000D4E086
:1012CB00FFEA04FD120DCC9000D4E0FFEA2402FDEE
:1012DB00120DCC9000D4E004FFEA2402FD120DCCD9
:1012EB009000D4E02402FFAD02120DCC9000D4E0AC
:1012FB002402FFEA04FD120DCC9000D4E02402FF7F
:10130B00EA2402FD120DCC9000D4E02402FFEA2463
:10131B0003FD120DCC9000D4E02402FFEA2404FD5F
:03132B00020DCCE4
:10112B00AA059000D4EFF07B01120DCC9000D4E017
:10113B00FFEA04FD120DCC9000D4E0FFEA2402FD7F
:10114B00120DCC9000D4E0FFEA2404FD120DCC90DC
:10115B0000D4E004FFAD02120DCC9000D4E004FFEC
:10116B00EA2402FD120DCC9000D4E004FFEA240423
:10117B00FD120DCC9000D4E02402FFAD02120DCC79
:10118B009000D4E02402FFEA2402FD120DCC900063
:10119B00D4E02402FFEA2403FD120DCC9000D4E02E
:0A11AB002402FFEA2404FD020DCC2B
:09162600ED2404FD7B01020DCC52
:10123E00AA059000D4EFF07B01120DCC9000D4E003
:10124E00FFEA04FD120DCC9000D4E0FFEA2402FD6B
:10125E00120DCC9000D4E0FFEA2403FD120DCC90C9
:10126E0000D4E0FFEA2404FD120DCC9000D4E0047B
:10127E00FFEA2402FD120DCC9000D4E02402FFEA16
:10128E0004FD120DCC9000D4E02402FFEA2403FDED
:10129E00120DCC9000D4E02403FFAD02120DCC90C1
:0D12AE0000D4E02403FFEA2404FD020DCC6F
:100CD200AA059000D4EFF07B01120DCC9000D4E075
:100CE200FFEA04FD120DCC9000D4E0FFEA2402FDDD
:100CF200120DCC9000D4E0FFEA2403FD120DCC903B
:100D020000D4E0FFEA2404FD120DCC9000D4E004EC
:100D1200FFEA2402FD120DCC9000D4E02402FFEA87
:100D22002402FD120DCC9000D4E02403FFAD021288
:100D32000DCC9000D4E02403FFEA04FD120DCC9008
:100D420000D4E02403FFEA2402FD120DCC9000D46B
:100D5200E02403FFEA2403FD120DCC9000D4E0242A
:100D620003FFEA2404FD120DCC9000D4E02405FF19
:100D7200EA04FD120DCC9000D4E02405FFEA24031E
:100D8200FD120DCC9000D4E02405FFEA2404FD12EC
:100D92000DCC9000D4E02406FFEA04FD120DCC90A5
:100DA20000D4E02406FFEA2402FD120DCC9000D408
:0B0DB200E02406FFEA2404FD020DCC43
:100AA100AA059000D4EFF07B01120DCC9000D4E0A8
:100AB100FFEA04FD120DCC9000D4E004FFEA240209
:100AC100FD120DCC9000D4E004FFEA2403FD120DC9
:100AD100CC9000D4E02402FFEA2404FD120DCC9056
:100AE10000D4E02403FFEA2402FD120DCC9000D4CF
:100AF100E02403FFEA2403FD120DCC9000D4E0248E
:100B010004FFAD02120DCC9000D4E02404FFEA04EE
:100B1100FD120DCC9000D4E02405FFEA2403FD1260
:100B21000DCC9000D4E02405FFEA2404FD120DCC85
:100B31009000D4E02406FFEA2402FD120DCC9000BF
:100B4100D4E02407FFAD02120DCC9000D4E02407BD
:100B5100FFEA04FD120DCC9000D4E02408FFEA2442
:100B610002FD120DCC9000D4E02408FFEA2403FD1D
:100B7100120DCC9000D4E02408FFEA2404FD120DEC
:100B8100CC9000D4E02409FFEA2402FD120DCC90A0
:100B910000D4E02409FFEA2404FD120DCC9000D416
:100BA100E0240AFFAD02120DCC9000D4E0240AFF2C
:100BB100EA04FD120DCC9000D4E0240AFFEA2402DD
:100BC100FD120DCC9000D4E0240AFFEA2403FD12AB
:100BD1000DCC9000D4E0240AFFEA2404FD020DCCE0
:1011B500AA059000D4EFF07B01120DCC9000D4E08D
:1011C500FFEA04FD120DCC9000D4E0FFEA2402FDF5
:1011D500120DCC9000D4E0FFEA2403FD120DCC9053
:1011E50000D4E0FFEA2404FD120DCC9000D4E00405
:1011F500FFEA04FD120DCC9000D4E004FFEA2402BE
:10120500FD120DCC9000D4E004FFEA2403FD120D7D
:10121500CC9000D4E02402FFAD02120DCC9000D496
:10122500E02402FFEA2404FD120DCC9000D4E02452
:0912350003FFEA2402FD020DCCC6
:1014C900AA059000D4EFF07B01120DCC9000D4E076
:1014D900FFEA04FD120DCC9000D4E0FFEA2402FDDE
:1014E900120DCC9000D4E0FFEA2403FD120DCC903C
:1014F90000D4E0FFEA2404FD120DCC9000D4E004EE
:10150900FFEA04FD120DCC9000D4E004FFEA2402A6
:10151900FD120DCC9000D4E004FFEA2403FD020D76
:01152900CCF5
:0E146600A3F09000D7740FF07B147D0AE4FF12
:081474009000D5EDF0A3EBF0B0
:10147C00E49000D8F0EFF09000D6E0FF9000D8E0B8
:10148C00FD3395E0FCC3ED9F7480F86C98502D9063
:10149C0000D5E0FA9000D7E0FFEAFD3395E0FCC3FD
:1014AC00ED9F7480F86C98500BA3E0FFE4FB120DD9
:0C14BC00CC0A80E09000D8E004F080BB77
:0114C8002201
:100BE100E4FA9000D5F0F09000D5E0FDC3943F50B9
:100BF100107B017F33120DCC9000D5E02402F080F0
:100C0100E6E49000D5F09000D5E0FDC3943F50108C
:100C11007B017F4D120DCC9000D5E02402F080E6DF
:100C2100E49000D5F09000D5E0FDC3943F50107BD7
:100C3100017F65120DCC9000D5E02402F080E67AA8
:100C41001BEAC3947F500DAF027B01E4FD120DCC72
:100C51000A0A80ED7A1BEAC3947F500DAF027B0133
:100C61007D0F120DCC0A0A80ED7A1BEAC3947F50E6
:100C71000DAF027B017D1F120DCC0A0A80ED7A1B9C
:100C8100EAC3947F500DAF027B017D2F120DCC0A78
:100C91000A80ED7A1BEAC3947F500DAF027B017D80
:100CA1003F120DCC0A0A80EDE49000D5F09000D5FA
:100CB100E0FDC3944050197B017F1A120DCC9000C6
:100CC100D5E0FD7F7F120DCC9000D5E004F080DDF2
:010CD1002200
:08002E009000D8F0A37401F06A
:0C0036009000D7EBF0AA059000D5EFF089
:10004200120DC79000D7E0FFA3E0FDA3E0FB120D65
:10005200CC9000D5E0FFFD9000D7E0C39DFCE49476
:10006200009000DCF0A3CCF0EAFD9000D8E0C39D44
:10007200FCE494009000DEF0A3CCF09000E2E4F007
:10008200A3EFF0EAFFA3E4F0A3EFF09000DCE0FEC0
:10009200A3E0FFD39400EE64809480500302022810
:1000A200A3E0FCA3E0FDD39400EC648094805003B1
:1000B200020228D3EF9DEC6480F8EE64809850032E
:1000C20002016BE49FFFE49E9000E0F0A3EFF0E4F6
:1000D2009000DAF0A3F09000DCE0FEA3E0FF9000D5
:1000E200DAE0FCA3E0C39FEE6480F8EC6480984001
:1000F20003020228120DBD9000E3E004F0700690A6
:1001020000E2E004F09000DEE0FEA3E025E0FFEE76
:1001120033FE9000E1E02FF09000E0E03EF0E0FEE0
:10012200C3EE6480948040309000E5E004F07006F5
:100132009000E4E004F09000E0E0FCA3E0FD900019
:10014200DCE0FEA3E025E0FFEE33FEC3ED9FFFEC13
:100152009E9000E0F0A3EFF09000DBE004F0700668
:100162009000DAE004F00200D89000DEE0FEA3E0A6
:10017200FFC3E49FFFE49EA3F0A3EFF09000D5E05D
:10018200FF9000E2E4F0A3EFF0EAFFA3E4F0A3EFB4
:10019200F0E49000DAF0A3F09000DEE0FEA3E0FFCE
:1001A2009000DAE0FCA3E0C39FEE6480F8EC648088
:1001B200985073120DBD9000E5E004F070069000B7
:1001C200E4E004F09000DCE0FEA3E025E0FFEE3383
:1001D200FE9000E1E02FF09000E0E03EF0E0FEC390
:1001E200EE64809480402E9000E3E004F07006906C
:1001F20000E2E004F09000E0E0FCA3E0FD9000DE0D
:10020200E0FEA3E025E0FFEE33FEC3ED9FFFEC9E90
:10021200A3F0A3EFF09000DBE004F070069000DAA8
:10022200E004F002019A9000DCE0FEA3C3EE6480D9
:10023200948040030203DDA3E0FEC3EE6480948059
:1002420040030203DD9000D7E0FF9000D5E0C39F9A
:10025200FEE494009000DCF0A3CEF09000D8E0FF22
:10026200EAC39FFEE494009000DEF0A3CEF090007B
:10027200DEE0FEA3E0FF9000DCE0FCA3E0FDD39F04
:10028200EE6480F8EC6480985003020335E49DFE2E
:10029200E49C9000E0F0A3CEF0E49000DAF0A3F04A
:1002A2009000DCE0FEA3E0FF9000DAE0FCA3E0C3F4
:1002B2009FEE6480F8EC64809840030203DD120D27
:1002C200BD9000E3E024FFF09000E2E034FFF09004
:1002D20000DEE0FEA3E025E0FFEE33FE9000E1E069
:1002E2002FF09000E0E03EF0E0FEC3EE64809480E8
:1002F20040309000E5E024FFF09000E4E034FFF0AD
:100302009000E0E0FCA3E0FD9000DCE0FEA3E0252D
:10031200E0FFEE33FEC3ED9FFFEC9E9000E0F0A302
:10032200EFF09000DBE004F070069000DAE004F0F9
:100332000202A29000DEE0FEA3E0FFC3E49FFFE41E
:100342009EA3F0A3EFF0E49000DAF0A3F09000DEB9
:10035200E0FEA3E0FF9000DAE0FCA3E0C39FEE64BE
:1003620080F8EC6480985073120DBD9000E5E02493
:10037200FFF09000E4E034FFF09000DCE0FEA3E048
:1003820025E0FFEE33FE9000E1E02FF09000E0E088
:100392003EF0E0FEC3EE64809480402E9000E3E0E5
:1003A20024FFF09000E2E034FFF09000E0E0FCA3D4
:1003B200E0FD9000DEE0FEA3E025E0FFEE33FEC3A9
:1003C200ED9FFFEC9EA3F0A3EFF09000DBE004F0C2
:1003D20070069000DAE004F002034F9000DCE0FEC9
:1003E200A3E0D39400EE64809480500302057EA3C0
:1003F200E0FEEE64809480400302057E9000D8E027
:10040200FFEAC39FFEE494009000DEF0A3CEF090DA
:1004120000DEE0FEA3E0FF9000DCE0FCA3E0FDD301
:100422009FEE6480F8EC64809850030204D6E49D49
:10043200FEE49C9000E0F0A3CEF0E49000DAF0A39A
:10044200F09000DCE0FEA3E0FF9000DAE0FCA3E025
:10045200C39FEE6480F8EC648098400302057E122C
:100462000DBD9000E3E004F070069000E2E004F0BD
:100472009000DEE0FEA3E025E0FFEE33FE9000E117
:10048200E02FF09000E0E03EF0E0FEC3EE648094E6
:100492008040309000E5E024FFF09000E4E034FF7B
:1004A200F09000E0E0FCA3E0FD9000DCE0FEA3E0C1
:1004B20025E0FFEE33FEC3ED9FFFEC9E9000E0F0DF
:1004C200A3EFF09000DBE004F070069000DAE004A5
:1004D200F00204439000DEE0FEA3E0FFC3E49FFFCE
:1004E200E49EA3F0A3EFF0E49000DAF0A3F0900012
:1004F200DEE0FEA3E0FF9000DAE0FCA3E0C39FEEA3
:100502006480F8EC6480985073120DBD9000E5E0B1
:1005120024FFF09000E4E034FFF09000DCE0FEA362
:10052200E025E0FFEE33FE9000E1E02FF09000E0E6
:10053200E03EF0E0FEC3EE64809480402E9000E343
:10054200E004F070069000E2E004F09000E0E0FCCD
:10055200A3E0FD9000DEE0FEA3E025E0FFEE33FE27
:10056200C3ED9FFFEC9EA3F0A3EFF09000DBE0044D
:10057200F070069000DAE004F00204F09000DCE093
:10058200FEA3C3EE648094804003020721A3E0FE31
:10059200A3E09400EE64809480500302072190004F
:1005A200D7E0FF9000D5E09FFFE49400FE9000DCCE
:1005B200F0A3EFF0A3E0FCA3E0C39FEE6480F8ECAD
:1005C20064809840030206799000DCE0FEA3E0FF1D
:1005D200C3E49FFFE49E9000E0F0A3EFF0E49000FC
:1005E200DAF0A3F09000DCE0FEA3E0FF9000DAE096
:1005F200FCA3E0C39FEE6480F8EC648098400302A1
:100602000721120DBD9000E3E024FFF09000E2E02C
:1006120034FFF09000DEE0FEA3E025E0FFEE33FEC3
:100622009000E1E02FF09000E0E03EF0E0FEC3EE4B
:100632006480948040309000E5E004F07006900001
:10064200E4E004F09000E0E0FCA3E0FD9000DCE0D8
:10065200FEA3E025E0FFEE33FEC3ED9FFFEC9E908C
:1006620000E0F0A3EFF09000DBE004F070069000F1
:10067200DAE004F00205E69000DEE0FEA3E0FFC34C
:10068200E49FFFE49EA3F0A3EFF0E49000DAF0A36E
:10069200F09000DEE0FEA3E0FF9000DAE0FCA3E0D1
:1006A200C39FEE6480F8EC6480985073120DBD9085
:1006B20000E5E004F070069000E4E004F09000DC55
:1006C200E0FEA3E025E0FFEE33FE9000E1E02FF034
:1006D2009000E0E03EF0E0FEC3EE64809480402EA5
:1006E2009000E3E024FFF09000E2E034FFF090009D
:1006F200E0E0FCA3E0FD9000DEE0FEA3E025E0FFE9
:10070200EE33FEC3ED9FFFEC9EA3F0A3EFF090004B
:10071200DBE004F070069000DAE004F00206939049
:1007220000DCE0FEA3E0FF4E70030207E1A3E0FC61
:10073200A3E04C60030207E1D3EF9400EE648094DF
:10074200804043E49000DAF0A3F09000DCE0FEA3E6
:10075200E0FF9000DAE0FCA3E0C39FEE6480F8ECD7
:10076200648098507A120DBD9000E3E004F07006A8
:100772009000E2E004F09000DBE004F070069000EC
:10078200DAE004F080C49000D7E0FF9000D5E0C327
:100792009FFEE494009000DCF0A3CEF0E49000DA37
:1007A200F0A3F09000DCE0FEA3E0FF9000DAE0FCB2
:1007B200A3E0C39FEE6480F8EC6480985021120D90
:1007C200BD9000E3E024FFF09000E2E034FFF090FF
:1007D20000DBE004F070069000DAE004F080C490E0
:1007E20000DCE0FEA3E04E600302089EA3E0FEA34D
:1007F200E0FF4E700302089ED3EF9400EE648094F3
:10080200804043E49000DAF0A3F09000DEE0FEA323
:10081200E0FF9000DAE0FCA3E0C39FEE6480F8EC16
:100822006480985077120DBD9000E5E004F07006E8
:100832009000E4E004F09000DBE004F07006900029
:10084200DAE004F080C49000D8E0FFC3EA9FFEE43F
:1008520094009000DEF0A3CEF0E49000DAF0A3F072
:100862009000DEE0FEA3E0FF9000DAE0FCA3E0C32C
:100872009FEE6480F8EC6480985021120DBD9000C8
:10088200E5E024FFF09000E4E034FFF09000DBE0CC
:0C08920004F070069000DAE004F080C46E
:01089E002237
:100E8500E49000D4F09000D4E0FE241BFF746F2E94
:100E9500F582E43400F583E0FE90006EE0FCEE8C14
:100EA500F084FE900005E0FAC3EE9AFD9000D4E0D0
:100EB500FE241CFB74702EF582E43400F583E08C6F
:100EC500F084C39A9000D8F0E4A3F01200369000A5
:100ED500D4E0FE241BFF74082EF582E43400F5836C
:100EE500E0FE90006EE0FCEE8CF084FE900005E0E4
:100EF500FAC3EE9AFD9000D4E0FE241CFB74092E83
:100F0500F582E43400F583E08CF084C39A12002E58
:100F15009000D4E0FF2408F582E43400F583E0FE78
:100F2500746F2FF582E43400F583EEF09000D4E081
:100F350004F0E0C394645003020E8A90006DE090C3
:060F450000D4F0020BE1F4
:100F4B00E49000D4F09000D4E0FE25E0241BFF7465
:100F5B006F2EF582E43400F583E0FE90006EE0FC2A
:100F6B00EE8CF084FE900005E0F9C3EE99FD900045
:100F7B00D4E0FE25E0241DFB74702EF582E43400D2
:100F8B00F583E08CF084C3999000D8F0E4A3F012C1
:100F9B0000369000D4E0FE25E0241BFF74082EF5EC
:100FAB0082E43400F583E0FE90006EE0FCEE8CF002
:100FBB0084FE900005E0F9C3EE99FD9000D4E0FEAD
:100FCB0025E0241DFB74092EF582E43400F583E043
:100FDB008CF084C39912002E9000D4E0FF2408F506
:100FEB0082E43400F583E0FE746F2FF582E4340065
:100FFB00F583EEF09000D4E004F0E0C3943250039C
:06100B00020F50020BE190
:10089F001215DDE4FF12152A12161A7D0AE4FF1253
:1008AF0012BB7D0A7F0412123E7D0A7F09120CD201
:1008BF007D1EE4FF1213FF7D1E7F04120AA17D32FD
:1008CF00E4FF1211B5D2AF90006DE060FA90000412
:1008DF00E07005120F4B8003120E8520922EB2840A
:1008EF009000D77437308413F07B057D32E4FF120C
:1008FF0014747D32E4FF1211B58011F07B057D3247
:10090F00E4FF1214747D32E4FF1214C93090030215
:10091F0009D4900004E0C394045005E004F080056E
:10092F00E4900004F0900004E014602C1460441470
:10093F00606214607A240460030209D4900000E41A
:10094F00F0A304F0E4FF12152A120BE11214687DD4
:10095F000AE4FF1212BB800D900000E4F0A3041212
:10096F0014671210117D0A7F0412123E7D0A7F094F
:10097F000209D1900000E4F07428121466121011CD
:10098F007D0A7F041213977D0A7F081213977D0A41
:10099F007F0C802E9000007401F074B81214661250
:1009AF0010117D0A7F041213977D0A7F0880139020
:1009BF0000007411F0A374581214671210117D0AFD
:1009CF007F04120CD2309103020A99900002E0C307
:1009DF0094025005E004F08005E4900002F09000CE
:1009EF0002E014603114606424026003020A9990DB
:1009FF00006E7404F0E4900005F09000D77423F0BB
:100A0F007B1A7D1EE4FF1214747D1EE4FF1213FF88
:100A1F007D1E7F04807190006E7402F0900005744B
:100A2F0020F09000D77423F07B1A7D1EE4FF121480
:100A3F00747D1EE4FF1213977D1E7F041216267D10
:100A4F001E7F0612112B7D1E7F0A803B90006E7455
:100A5F0001F09000057460F09000D77423F07B1ABA
:100A6F007D1EE4FF1214747D1EE4FF1213977D1E8A
:100A7F007F041216267D1E7F061210157D1E7F0A1B
:100A8F0012112B7D1E7F0E120AA1E490006DF00251
:020A9F0008D677
:1010AB0002089FE493A3F8E493A34003F68001F2B4
:1010BB0008DFF48029E493A3F85407240CC8C33346
:1010CB00C4540F4420C8834004F456800146F6DF15
:1010DB00E4800B0102040810204080900003E47EA2
:1010EB00019360BCA3FF543F30E509541FFEE4930A
:1010FB00A360010ECF54C025E060A840B8E493A3D1
:10110B00FAE493A3F8E493A3C8C582C8CAC583CAFB
:10111B00F0A3C8C582C8CAC583CADFE9DEE780BEB3
:0100250000DA
:00000001FF
