:100755000020003CC0233802E002002700380020BA
:100765000820F83FF800003FF800F83F0820000097
:100775000000000000000000000000000000000074
:100785000000000000000000000000000000000064
:100795000820F83F88208800E803080010000000C2
:1007A5000820F83F882088008803880C70300020D6
:1007B5000000000000000000000000000000000034
:1007C5000000000000000000000000000000000024
:0408A2000208000048
:10084900D3EF9400EE9400400B7D13DDFEEF1F7093
:04085900EF1E80EC22
:01085D002278
:10081100C2B4C2B6D2B47F017E00120849C2B4305C
:0C082100B5FDD2B6AF807508008F09222B
:0C088C00C2A2D2A1D2A0C2A02097F922E3
:0E08700012088CC2A2C2A18F90D2A0C2A022F8
:0E087E0012088CD2A2C2A18F90D2A0C2A022DA
:1007D500EF64014E7004C2A4D2A3EF64024E70040C
:0F07E500D2A4C2A3EF64034E7004C2A4C2A32225
:10082D007EB8AF061208707F40120870E4FDE4FF39
:0B083D0012087E0DBD40F70EBEC0E7A4
:01084800228D
:0A0898007FC01208707F3F02087055
:0707F4003EF583E493F50BD1
:1007FB00AF6CAE6B1207D5AF0C120870AF0A1208B4
:06080B0070AF0B02087E35
:10085E007DB88D0CE4F50B1207FB0DEDD394BF4064
:01086E00F198
:01086F002266
:10000300E4F571F572F5757576017F03FE1207D578
:1000130012082D1208987F027E001207D57DB8E4DE
:10002300F577F578C3E5789404E577940040030207
:1000330000D08D0C750A60E4F56DF56EE578AE774A
:100043007805C333CE33CED8F9FBAA06E56E25E097
:10005300FFE56D33FEEF2BFFEE3AFE74552FF5826D
:1000630074071207F4050A056EE56E7002056DC389
:100073009410E56D940040C4ED04F50C750A60E43A
:10008300F56DF56EE578AE777805C333CE33CED80C
:10009300F9FBAA06E56E25E0FFE56D33FEEF2BFFC6
:1000A300EE3AFE74562FF58274071207F4050A051B
:1000B3006EE56E7002056DC39410E56D940040C447
:0D00C3000578E578700205770D0D02002725
:1000D000120811E509648045086010E5096481454E
:1000E000086008E5096482450870E5AC091208114A
:1000F000ECD39509E4950850D720B70D30B7FD052E
:1001000072E57270F4057180F020B31330B3FDE531
:1001100072457160F4E572157270EE157180EA2017
:10012000B00D30B0FD0576E57670F4057580F020F1
:10013000B11530B1FDE5766401457560F2E57615DF
:100140007670EC157580E8E4F56FF570120811749F
:100150000D2570F8A609AF72AE711208490570E559
:10016000707002056FC3945EE56F940040DE750AFF
:1001700040E4F56DF56EF56FF570C3E56E945EE5E0
:100180006D940040030200D0C3E5709440E56F9485
:10019000005006756B00756C01E5706440456F702A
:1001A00003750A40C3E5709440E56F9400400675FE
:1001B0006B00756C0212085E740D2570F8E6FCE4A5
:1001C0001206067B397AB47948783E120456C00488
:1001D000C005C006C007AC75AD76E4120601A804E0
:1001E000A905AA06AB07D007D006D005D004120592
:1001F0005F12063A8E088F09D3E5099407E5089443
:10020000005013750CBF7480A807088002C313D870
:10021000FCF50B020305D3E509940FE508940050A3
:1002200018750CBEE50924F8FF7480A80708800241
:10023000C313D8FCF50B020305D3E5099417E508B1
:1002400094005018750CBDE50924F0FF7480A807D0
:10025000088002C313D8FCF50B020305D3E509940B
:100260001FE50894005018750CBCE50924E8FF74DC
:1002700080A807088002C313D8FCF50B020305D33E
:10028000E5099427E50894005017750CBBE509248F
:10029000E0FF7480A807088002C313D8FCF50B8028
:1002A00064D3E509942FE50894005017750CBAE55E
:1002B0000924D8FF7480A807088002C313D8FCF56E
:1002C0000B8042D3E5099437E50894005017750C6C
:1002D000B9E50924D0FF7480A807088002C313D8A9
:1002E000FCF50B8020D3E509943FE50894005015F8
:1002F000750CB8E50924C8FF7480A807088002C3FC
:1003000013D8FCF50BE56E456D7006850B79850CF1
:100310007AE56E456D700302042C850B7B850C7CA1
:10032000E50C657A7047E50BD39579401C850B7D0C
:10033000E57D13F57DE57D6579600EE57DC313F5FB
:100340007DE50BC313420B80ECE50BC39579501D83
:10035000850B7DE57D25E0F57DE57D6579600EE524
:100360007D25E0F57DE50B25E0420B80ECE50CC337
:10037000957A5059E4F573F574E50B25E0420B05C9
:1003800074E574700205736407457370EC800AE5C8
:100390000CC3957A500A750BFF1207FB050C80EF12
:1003A000E50C657A7027750B01E50BC39579501D37
:1003B000850B7DE57D25E0F57DE57D6579600EE5C4
:1003C0007D25E0F57DE50B25E0420B80ECE50CD3C7
:1003D000957A4058E4F573F574E50BC313420B05A9
:1003E00074E574700205736407457370EC800AE568
:1003F0000CD3957A400A750BFF1207FB150C80EFA2
:10040000E50C657A7026750B80E50BD39579401C59
:10041000850B7DE57D13F57DE57D6579600EE57DD8
:10042000C313F57DE50BC313420B80ECE56E456D00
:100430006006857B79857C7A1207FBE50A647F601C
:1004400002050A056EE56E7002056D0570E57070B7
:0604500002056F02017AB3
:030000000206C92C
:0C06C900787FE4F6D8FD75817D020710F3
:10045600EC4D6011E8497017ED33EC3304600DE4A0
:10046600FCFFFEFD22E933E8330470F80206A6120B
:10047600067158046009E4CC24815006285009020C
:1004860006B02840030206ADC0E0EB4A7044B980CE
:1004960006D0E0FB02069CEF4E701CBD8008EBFF09
:1004A600EAFEE9FD80EBE98DF0A4FEE5F002053FEA
:1004B600E9CDF9EAFEEBFFEF89F0A4FCE5F0CE8981
:1004C600F0A42EFFE435F0CD89F0A42DFEE435F03E
:1004D6008067EF4E7005BD80D780C3EF8BF0A4AC6C
:1004E600F0EE8BF0A42CFCE435F0F8EF8AF0A42CA7
:1004F600E5F038FCE433CB8DF0A42CFCE5F03BF8BA
:10050600EE8AF0A42CFCE5F038F8E433CF89F0A4A9
:100516002CFCE5F038CF3400CE89F0A42FFFE5F0AF
:100526003EFEE433C98DF0A42EFEE5F039CD8AF007
:10053600A42FFFE5F03EFEE43DFD33D0E0FB50077F
:100546000BBB000F0206B0EC2CFCEF33FFEE33FEC4
:06055600ED33FD020688F2
:10055C000206B0EC5D046005E8590470030206A6BF
:10056C00120671580460F6EC4860F2EC7004FDFE63
:10057C00FF22C860DB2481C85009C3986002500672
:10058C000206AD9850CAF582E9294B4A7005AB8238
:10059C0002069C75F0007C1A7880C3EF9BEE9AEDF6
:1005AC0099400DC3EF9BFFEE9AFEED99FDE842F0EA
:1005BC00DC23ACF0D0E0FFD0E0FED0E0FDAB82203D
:1005CC00E7101BEB60BAEC2CFCEF33FFEE33FEEDC7
:1005DC0033FD020688E803F830E705C0F075F0003B
:1005EC00EF2FFFEE33FEED33FD40B830E7C280AAAB
:1005FC0075F020800E75F010800575F0087D007E7A
:10060C00007F003392D530D5031206BBEC3340107B
:10061C00EF33FFEE33FEED33FDEC33FCD5F0ED2282
:0E062C00E5F0247EA2D513CC92E7CDCEFF22BE
:10063A00EDD2E7CD33EC3392D524814006E4FFFEB8
:10064A00FDFC22FCE4CFCECDCC24E0501174FF8017
:10065A00EDC3CC13CCCD13CDCE13CECF13CF0470B4
:07066A00F030D5DE0206BBF3
:10067100E9D2E7C933E833F892D5EDD2E7CD33ECCF
:0706810033FC5002B2D52248
:10068800EC30E7100FBF000C0EBE00080DBD0004D3
:100698000BEB6014A2D5EB13FCED92E7FD2274FF7F
:1006A800FCFDFEFF22E480F8A2D574FF13FC7D80D8
:0306B800E480EFEC
:1006D500020003E493A3F8E493A34003F68001F238
:1006E50008DFF48029E493A3F85407240CC8C33326
:1006F500C4540F4420C8834004F456800146F6DFF5
:10070500E4800B01020408102040809008A2E47EDA
:10071500019360BCA3FF543F30E509541FFEE493E9
:10072500A360010ECF54C025E060A840B8E493A3B0
:10073500FAE493A3F8E493A3C8C582C8CAC583CADB
:10074500F0A3C8C582C8CAC583CADFE9DEE780BE93
:0108A6000051
:0E06BB00C3E49FFFE49EFEE49DFDE49CFC2250
:00000001FF
