:10155F00000100020004000800100020004000807D
:10156F00010002000400080010002000400080006D
:100003004100030041006D0042000600004100046E
:100013000041000200420000000041006E04410064
:020023000500D6
:1015C50075A0FFC280D281D28200E5A05480FFC2FF
:0115D5008293
:0115D60022F2
:10157F00AE071215C5EF70FAD280C281C282000089
:0B158F00AF068FA0D2820000C28222B3
:1015B0001215C5EF70FA75A0FFD280D281D28200D9
:0415C000AFA0C28294
:0115C4002204
:10153000E92480FF1215429000E8E0FF9000E6E009
:021540002FFF7B
:10154200AE071215C5EF70FAC280C281C2820000D6
:0D155200AF068FA00000D2820000C28222EE
:0F0D7D009000E3E0FF9000E5E0FD9000D9E0FB7F
:0C0D8C009000E7EBF0A9059000E6EFF006
:100D9800C394804003020E44E9C394404003020E0A
:100DA800449000E7E05401F09000E6E0FF540FFEA5
:100DB800C3740F9E9000E9F0EFC4540F9000E6F062
:100DC800E9C394209000E850057480F0800374888B
:100DD800F0E9541FF97F361215421215301215B07A
:100DE800AD077C001215B0EF7D00FC1215B0EFFDC9
:100DF800A3E09000E9B40117E025E0245FF582E460
:100E08003415F583E4934CFC7401934DFD801BE08D
:100E180025E0245FF582E43415F583E493FE74013C
:100E280093F4FFEEF45CFCED5FFD121530ECFF125D
:0C0E3800157FAF0512157F7F30121542A8
:010E4400228B
:1014EA00EF20E004E4FD80027DFF7F36121542E41E
:1014FA00FCE4FBE4FAEB2480FF121542EA24802C78
:10150A00FF121542AF0512157FAF0512157F0AEAC1
:10151A00B408E20BEBB420DB74082CFCC39409403A
:06152A00D07F30021542E3
:10159A00D2837F301215427F0C1215427F01121539
:0615AA00427F060215421B
:0C15D700759D80E4F5BD75BCEFD2AD221F
:03002B000212EED0
:1012EE00C0E0C083C082C0D075D00875BCEF90003E
:1012FE006DE0704C900000E0FFA3E0900006CFF090
:10130E00A3EFF0900006E07002A3E06010900007DB
:10131E00E024FFF0900006E034FFF080E69000033A
:10132E00E02408F582E43400F583E5BDF090000377
:10133E00E004F0E0D394654007E4F090006D04F013
:09134E00D0D0D082D083D0E0326F
:10135700AA059000D4EFF0EA04FD7B01120D8C90F2
:1013670000D4E0FFEA2402FD120D8C9000D4E0FFC8
:10137700EA2403FD120D8C9000D4E004FFAD0212A5
:101387000D8C9000D4E004FFEA2404FD120D8C902C
:1013970000D4E02402FFEA04FD120D8C9000D4E093
:1013A7002402FFEA2402FD120D8C9000D4E02402EF
:0813B700FFEA2403FD020D8C86
:1013BF00AA059000D4EFF0EA04FD7B01120D8C908A
:1013CF0000D4E0FFEA2404FD120D8C9000D4E00459
:1013DF00FFAD02120D8C9000D4E004FFEA04FD1261
:1013EF000D8C9000D4E004FFEA2402FD120D8C90C6
:1013FF0000D4E004FFEA2403FD120D8C9000D4E02A
:10140F0004FFEA2404FD120D8C9000D4E02402FFA7
:07141F00EA2404FD020D8C1C
:040FD1007D0AE4FFB2
:100FD500AA059000D4EFF07B01120D8C9000D4E0AF
:100FE500FFEA2402FD120D8C9000D4E0FFEA2403F1
:100FF500FD120D8C9000D4E0FFEA2404FD120D8C47
:101005009000D4E004FFAD02120D8C9000D4E004F2
:10101500FFEA2402FD120D8C9000D4E004FFEA24BF
:1010250004FD120D8C9000D4E02402FFAD02120DD8
:101035008C9000D4E02402FFEA04FD120D8C900090
:10104500D4E02402FFEA2402FD120D8C9000D4E0C6
:0A1055002402FFEA2404FD020D8CC2
:10127B00AA059000D4EFF07B01120D8C9000D4E006
:10128B00FFEA04FD120D8C9000D4E0FFEA2402FD6E
:10129B00120D8C9000D4E004FFEA2402FD120D8C99
:1012AB009000D4E02402FFAD02120D8C9000D4E02C
:1012BB002402FFEA04FD120D8C9000D4E02402FFFF
:1012CB00EA2402FD120D8C9000D4E02402FFEA24E4
:1012DB0003FD120D8C9000D4E02402FFEA2404FDE0
:0312EB00020D8C65
:1010EB00AA059000D4EFF07B01120D8C9000D4E098
:1010FB00FFEA04FD120D8C9000D4E0FFEA2402FD00
:10110B00120D8C9000D4E0FFEA2404FD120D8C909C
:10111B0000D4E004FFAD02120D8C9000D4E004FF6C
:10112B00EA2402FD120D8C9000D4E004FFEA2404A3
:10113B00FD120D8C9000D4E02402FFAD02120D8C39
:10114B009000D4E02402FFEA2402FD120D8C9000E3
:10115B00D4E02402FFEA2403FD120D8C9000D4E0AE
:0A116B002402FFEA2404FD020D8CAB
:0915E300ED2404FD7B01020D8CD6
:1011FE00AA059000D4EFF07B01120D8C9000D4E084
:10120E00FFEA04FD120D8C9000D4E0FFEA2402FDEB
:10121E00120D8C9000D4E0FFEA2403FD120D8C9089
:10122E0000D4E0FFEA2404FD120D8C9000D4E004FB
:10123E00FFEA2402FD120D8C9000D4E02402FFEA96
:10124E0004FD120D8C9000D4E02402FFEA2403FD6D
:10125E00120D8C9000D4E02403FFAD02120D8C9081
:0D126E0000D4E02403FFEA2404FD020D8CEF
:100BAB00AA059000D4EFF07B01120D8C9000D4E0DD
:100BBB00FFEA04FD120D8C9000D4E0FFEA2402FD45
:100BCB00120D8C9000D4E0FFEA2403FD120D8C90E3
:100BDB0000D4E0FFEA2404FD120D8C9000D4E00455
:100BEB00FFEA2402FD120D8C9000D4E02402FFEAF0
:100BFB002402FD120D8C9000D4E02403FFAD0212F1
:100C0B000D8C9000D4E02403FFEA04FD120D8C90B0
:100C1B0000D4E02403FFEA2402FD120D8C9000D4D3
:100C2B00E02403FFEA2403FD120D8C9000D4E02492
:100C3B0003FFEA2404FD120D8C9000D4E02405FF81
:100C4B00EA04FD120D8C9000D4E02405FFEA240386
:100C5B00FD120D8C9000D4E02405FFEA2404FD1254
:100C6B000D8C9000D4E02406FFEA04FD120D8C904D
:100C7B0000D4E02406FFEA2402FD120D8C9000D470
:0B0C8B00E02406FFEA2404FD020D8CAB
:100A6B00AA059000D4EFF07B01120D8C9000D4E01E
:100A7B00FFEA04FD120D8C9000D4E004FFEA24027F
:100A8B00FD120D8C9000D4E004FFEA2403FD120D3F
:100A9B008C9000D4E02402FFEA2404FD120D8C900C
:100AAB0000D4E02403FFEA2402FD120D8C9000D445
:100ABB00E02403FFEA2403FD120D8C9000D4E02404
:100ACB0004FFAD02120D8C9000D4E02404FFEA0465
:100ADB00FD120D8C9000D4E02405FFEA2403FD12D7
:100AEB000D8C9000D4E02405FFEA2404FD120D8C3C
:100AFB009000D4E02406FFEA2402FD120D8C900036
:100B0B00D4E02407FFAD02120D8C9000D4E0240733
:100B1B00FFEA04FD120D8C9000D4E02408FFEA24B8
:100B2B0002FD120D8C9000D4E02408FFEA2403FD93
:100B3B00120D8C9000D4E02408FFEA2404FD120D62
:100B4B008C9000D4E02409FFEA2402FD120D8C9056
:100B5B0000D4E02409FFEA2404FD120D8C9000D48C
:100B6B00E0240AFFAD02120D8C9000D4E0240AFFA2
:100B7B00EA04FD120D8C9000D4E0240AFFEA240253
:100B8B00FD120D8C9000D4E0240AFFEA2403FD1221
:100B9B000D8C9000D4E0240AFFEA2404FD020D8C96
:10117500AA059000D4EFF07B01120D8C9000D4E00D
:10118500FFEA04FD120D8C9000D4E0FFEA2402FD75
:10119500120D8C9000D4E0FFEA2403FD120D8C9013
:1011A50000D4E0FFEA2404FD120D8C9000D4E00485
:1011B500FFEA04FD120D8C9000D4E004FFEA24023E
:1011C500FD120D8C9000D4E004FFEA2403FD120DFE
:1011D5008C9000D4E02402FFAD02120D8C9000D457
:1011E500E02402FFEA2404FD120D8C9000D4E024D3
:0911F50003FFEA2402FD020D8C47
:10148900AA059000D4EFF07B01120D8C9000D4E0F6
:10149900FFEA04FD120D8C9000D4E0FFEA2402FD5E
:1014A900120D8C9000D4E0FFEA2403FD120D8C90FC
:1014B90000D4E0FFEA2404FD120D8C9000D4E0046E
:1014C900FFEA04FD120D8C9000D4E004FFEA240227
:1014D900FD120D8C9000D4E004FFEA2403FD020DF7
:0114E9008C76
:0E142600A3F09000D7740FF07B147D0AE4FF52
:081434009000D5EDF0A3EBF0F0
:10143C00E49000D8F0EFF09000D6E0FF9000D8E0F8
:10144C00FD3395E0FCC3ED9F7480F86C98502D90A3
:10145C0000D5E0FA9000D7E0FFEAFD3395E0FCC33D
:10146C00ED9F7480F86C98500BA3E0FFE4FB120D19
:0C147C008C0A80E09000D8E004F080BBF7
:011488002241
:100C9600E4FA9000D5F0F09000D5E0FDC3943F5003
:100CA600107B017F33120D8C9000D5E02402F0807A
:100CB600E6E49000D5F09000D5E0FDC3943F5010D7
:100CC6007B017F4D120D8C9000D5E02402F080E66A
:100CD600E49000D5F09000D5E0FDC3943F50107B22
:100CE600017F65120D8C9000D5E02402F080E67A33
:100CF6001BAF027B01E4FD120D8C0A0AEAC3947F46
:100D060040EF7A1BAF027B017D0F120D8C0A0AEAB7
:100D1600C3947F40EF7A1BAF027B017D1F120D8CBF
:100D26000A0AEAC3947F40EF7A1BAF027B017D2F4C
:100D3600120D8C0A0AEAC3947F40EF7A1BAF027B3E
:100D4600017D3F120D8C0A0AEAC3947F40EFE490BE
:100D560000D5F09000D5E0FDC3944050197B017F8B
:100D66001A120D8C9000D5E0FD7F7F120D8C90003D
:060D7600D5E004F080DD71
:010D7C002254
:08002E009000D8F0A37401F06A
:0C0036009000D7EBF0AA059000D5EFF089
:10004200120D879000D7E0FFA3E0FDA3E0FB120DA5
:100052008C9000D5E0FFFD9000D7E0C39DFCE494B6
:10006200009000DCF0A3CCF0EAFD9000D8E0C39D44
:10007200FCE494009000DEF0A3CCF09000E2E4F007
:10008200A3EFF0EAFFA3E4F0A3EFF09000DCE0FEC0
:10009200A3E0FFD39400EE64809480500302021E1A
:1000A200A3E0FCA3E0FDD39400EC648094805003B1
:1000B20002021ED3EF9DEC6480F8EE648098500338
:1000C200020166E49FFFE49E9000E0F0A3EFF0E4FB
:1000D2009000DAF0A3F09000DCE0FEA3E0FF9000D5
:1000E200DAE0FCA3E0C39FEE6480F8EC6480984001
:1000F2000302021E120D7D9000E3E004F0700690F0
:1001020000E2E004F09000DEE0FEA3E025E0FFEE76
:1001120033FE9000E1E02FF09000E0E03EF0E0FCE2
:10012200A3E0FDC3EC6480948040289000E5E004E5
:10013200F070069000E4E004F09000DCE0FEA3E042
:1001420025E0FFEE33FEC3ED9FFFEC9E9000E0F052
:10015200A3EFF09000DBE004F070069000DAE00418
:10016200F00200D89000DEE0FEA3E0FFC3E49FFFB0
:10017200E49EA3F0A3EFF09000D5E0FF9000E2E44C
:10018200F0A3EFF0EAFFA3E4F0A3EFF0E49000DACB
:10019200F0A3F09000DEE0FEA3E0FF9000DAE0FCC6
:1001A200A3E0C39FEE6480F8EC648098506E120D59
:1001B2007D9000E5E004F070069000E4E004F09029
:1001C20000DCE0FEA3E025E0FFEE33FE9000E1E07C
:1001D2002FF09000E0E03EF0E0FCA3E0FDC3EC6411
:1001E20080948040269000E3E004F070069000E2E4
:1001F200E004F09000DEE0FEA3E025E0FFEE33FE37
:10020200C3ED9FFFEC9EA3F0A3EFF09000DBE004B0
:10021200F070069000DAE004F00201959000DCE054
:10022200FEA3C3EE6480948040030203C2A3E0FEF7
:10023200C3EE6480948040030203C29000D7E0FFC3
:100242009000D5E0C39FFEE494009000DCF0A3CEC2
:10025200F09000D8E0FFEAC39FFFE49400FE900014
:10026200DEF0A3EFF09000DCE0FCA3E0FDD39FEE14
:100272006480F8EC648098500302031FE49DFEE45E
:100282009C9000E0F0A3CEF0E49000DAF0A3F090AE
:1002920000DCE0FEA3E0FF9000DAE0FCA3E0C39FF5
:1002A200EE6480F8EC64809840030203C2120D7D74
:1002B2009000E3E024FFF09000E2E034FFF09000D1
:1002C200DEE0FEA3E025E0FFEE33FE9000E1E02F4A
:1002D200F09000E0E03EF0E0FCA3E0FDC3EC6480BF
:1002E200948040289000E5E024FFF09000E4E034A0
:1002F200FFF09000DCE0FEA3E025E0FFEE33FEC35A
:10030200ED9FFFEC9E9000E0F0A3EFF09000DBE0A9
:1003120004F070069000DAE004F00202919000DE30
:10032200E0FEA3E0FFC3E49FFFE49EA3F0A3EFF08F
:10033200E49000DAF0A3F09000DEE0FEA3E0FF908C
:1003420000DAE0FCA3E0C39FEE6480F8EC648098DE
:10035200506E120D7D9000E5E024FFF09000E4E085
:1003620034FFF09000DCE0FEA3E025E0FFEE33FE78
:100372009000E1E02FF09000E0E03EF0E0FCA3E02E
:10038200FDC3EC6480948040269000E3E024FFF0FB
:100392009000E2E034FFF09000DEE0FEA3E025E012
:1003A200FFEE33FEC3ED9FFFEC9EA3F0A3EFF090B0
:1003B20000DBE004F070069000DAE004F00203399A
:1003C2009000DCE0FEA3E0D39400EE6480948050C1
:1003D20003020552A3E0FEEE64809480400302050E
:1003E200529000D8E0FFEAC39FFFE49400FE900021
:1003F200DEF0A3EFF09000DCE0FCA3E0FDD39FEE83
:100402006480F8EC64809850030204AFE49DFEE43B
:100412009C9000E0F0A3CEF0E49000DAF0A3F0901C
:1004220000DCE0FEA3E0FF9000DAE0FCA3E0C39F63
:10043200EE6480F8EC6480984003020552120D7D50
:100442009000E3E004F070069000E2E004F0900017
:10045200DEE0FEA3E025E0FFEE33FE9000E1E02FB8
:10046200F09000E0E03EF0E0FCA3E0FDC3EC64802D
:10047200948040289000E5E024FFF09000E4E0340E
:10048200FFF09000DCE0FEA3E025E0FFEE33FEC3C8
:10049200ED9FFFEC9E9000E0F0A3EFF09000DBE018
:1004A20004F070069000DAE004F00204219000DE0D
:1004B200E0FEA3E0FFC3E49FFFE49EA3F0A3EFF0FE
:1004C200E49000DAF0A3F09000DEE0FEA3E0FF90FB
:1004D20000DAE0FCA3E0C39FEE6480F8EC6480984D
:1004E200506E120D7D9000E5E024FFF09000E4E0F4
:1004F20034FFF09000DCE0FEA3E025E0FFEE33FEE7
:100502009000E1E02FF09000E0E03EF0E0FCA3E09C
:10051200FDC3EC6480948040269000E3E004F07018
:10052200069000E2E004F09000DEE0FEA3E025E0A9
:10053200FFEE33FEC3ED9FFFEC9EA3F0A3EFF0901E
:1005420000DBE004F070069000DAE004F00204C977
:100552009000DCE0FEA3C3EE6480948040030206B8
:10056200EBA3E0FEA3E09400EE64809480500302CB
:1005720006EB9000D7E0FF9000D5E09FFFE49400E7
:10058200FE9000DCF0A3EFF0A3E0FCA3E0C39FEE3B
:100592006480F8EC64809840030206489000DCE036
:1005A200FEA3E0FFC3E49FFFE49E9000E0F0A3EF10
:1005B200F0E49000DAF0A3F09000DCE0FEA3E0FFAC
:1005C2009000DAE0FCA3E0C39FEE6480F8EC648064
:1005D2009840030206EB120D7D9000E3E024FFF049
:1005E2009000E2E034FFF09000DEE0FEA3E025E0C0
:1005F200FFEE33FE9000E1E02FF09000E0E03EF0ED
:10060200E0FCA3E0FDC3EC6480948040289000E508
:10061200E004F070069000E4E004F09000DCE0FEFC
:10062200A3E025E0FFEE33FEC3ED9FFFEC9E9000BA
:10063200E0F0A3EFF09000DBE004F070069000DA47
:10064200E004F00205BA9000DEE0FEA3E0FFC3E49E
:100652009FFFE49EA3F0A3EFF0E49000DAF0A3F092
:100662009000DEE0FEA3E0FF9000DAE0FCA3E0C32E
:100672009FEE6480F8EC648098506E120D7D9000BD
:10068200E5E004F070069000E4E004F09000DCE0A5
:10069200FEA3E025E0FFEE33FE9000E1E02FF090B4
:1006A20000E0E03EF0E0FCA3E0FDC3EC6480948057
:1006B20040269000E3E024FFF09000E2E034FFF0F7
:1006C2009000DEE0FEA3E025E0FFEE33FEC3ED9FE7
:1006D200FFEC9EA3F0A3EFF09000DBE004F07006C5
:1006E2009000DAE004F00206629000DCE0FEA3E093
:1006F200FF4E70030207ABA3E0FCA3E04C600302D1
:1007020007ABD3EF9400EE648094804043E4900002
:10071200DAF0A3F09000DCE0FEA3E0FF9000DAE064
:10072200FCA3E0C39FEE6480F8EC648098507A12D8
:100732000D7D9000E3E004F070069000E2E004F02A
:100742009000DBE004F070069000DAE004F080C470
:100752009000D7E0FF9000D5E0C39FFEE4940090A4
:1007620000DCF0A3CEF0E49000DAF0A3F09000DC1D
:10077200E0FEA3E0FF9000DAE0FCA3E0C39FEE649A
:1007820080F8EC6480985021120D7D9000E3E02403
:10079200FFF09000E2E034FFF09000DBE004F07044
:1007A200069000DAE004F080C49000DCE0FEA3E0F2
:1007B2004E6003020868A3E0FEA3E0FF4E7003024E
:1007C2000868D3EF9400EE648094804043E4900084
:1007D200DAF0A3F09000DEE0FEA3E0FF9000DAE0A2
:1007E200FCA3E0C39FEE6480F8EC6480985077121B
:1007F2000D7D9000E5E004F070069000E4E004F066
:100802009000DBE004F070069000DAE004F080C4AF
:100812009000D8E0FFC3EA9FFEE494009000DEF06F
:10082200A3CEF0E49000DAF0A3F09000DEE0FEA3A5
:10083200E0FF9000DAE0FCA3E0C39FEE6480F8ECF6
:100842006480985021120D7D9000E5E024FFF09025
:1008520000E4E034FFF09000DBE004F0700690006A
:06086200DAE004F080C49E
:01086800226D
:100E4500E49000D4F09000D4E0FE241BFF746F2ED4
:100E5500F582E43400F583E0FE90006EE0FCEE8C54
:100E6500F084FE900005E0FAC3EE9AFD9000D4E010
:100E7500FE241CFB74702EF582E43400F583E08CAF
:100E8500F084C39A9000D8F0E4A3F01200369000E5
:100E9500D4E0FE241BFF74082EF582E43400F583AC
:100EA500E0FE90006EE0FCEE8CF084FE900005E024
:100EB500FAC3EE9AFD9000D4E0FE241CFB74092EC3
:100EC500F582E43400F583E08CF084C39A12002E99
:100ED5009000D4E0FF2408F582E43400F583E0FEB9
:100EE500746F2FF582E43400F583EEF09000D4E0C2
:100EF50004F0E0C394645003020E4A90006DE09044
:060F050000D4F0020C967E
:100F0B00E49000D4F09000D4E0FE25E0241BFF74A5
:100F1B006F2EF582E43400F583E0FE90006EE0FC6A
:100F2B00EE8CF084FE900005E0F9C3EE99FD900085
:100F3B00D4E0FE25E0241DFB74702EF582E4340012
:100F4B00F583E08CF084C3999000D8F0E4A3F01201
:100F5B0000369000D4E0FE25E0241BFF74082EF52C
:100F6B0082E43400F583E0FE90006EE0FCEE8CF042
:100F7B0084FE900005E0F9C3EE99FD9000D4E0FEED
:100F8B0025E0241DFB74092EF582E43400F583E083
:100F9B008CF084C39912002E9000D4E0FF2408F546
:100FAB0082E43400F583E0FE746F2FF582E43400A5
:100FBB00F583EEF09000D4E004F0E0C394325003DC
:060FCB00020F10020C965B
:1008690012159AE4FF1214EA1215D77D0AE4FF1251
:10087900127B7D0A7F041211FE7D0A7F09120BABE0
:100889007D1EE4FF1213BF7D1E7F04120A6B7D32A9
:10089900E4FF121175D2AF90006DE060FA90000488
:1008A900E07005120F0B8003120E4520922EB284C0
:1008B9009000D77437308413F07B057D32E4FF1242
:1008C90014347D32E4FF1211758011F07B057D32FD
:1008D900E4FF1214347D32E4FF12148930900302CC
:1008E900099E900004E0C394045005E004F08005DB
:1008F900E4900004F0900004E014602C14604414A7
:10090900606214607A2404600302099E900000E486
:10091900F0A304F0E4FF1214EA120C961214287DD5
:100929000AE4FF12127B800D900000E4F0A3041288
:100939001427120FD17D0A7F041211FE7D0A7F0947
:1009490002099B900000E4F07428121426120FD1BA
:100959007D0A7F041213577D0A7F081213577D0AF7
:100969007F0C802E9000007401F074B812142612C6
:100979000FD17D0A7F041213577D0A7F08801390D7
:1009890000007411F0A37458121427120FD17D0AB4
:100999007F04120BAB309103020A63900002E0C39B
:1009A90094025005E004F08005E4900002F0900004
:1009B90002E014603114606424026003020A639047
:1009C900006E7404F0E4900005F09000D77423F0F1
:1009D9007B1A7D1EE4FF1214347D1EE4FF1213BF3F
:1009E9007D1E7F04807190006E7402F09000057482
:1009F90020F09000D77423F07B1A7D1EE4FF1214B7
:100A0900347D1EE4FF1213577D1E7F041215E37D0A
:100A19001E7F061210EB7D1E7F0A803B90006E74CC
:100A290001F09000057460F09000D77423F07B1AF0
:100A39007D1EE4FF1214347D1EE4FF1213577D1E40
:100A49007F041215E37D1E7F06120FD57D1E7F0AD6
:100A59001210EB7D1E7F0E120A6BE490006DF002FE
:020A690008A0E3
:0300000002105F8C
:0C105F00787FE4F6D8FD75810F0210A622
:10106B00020869E493A3F8E493A34003F68001F22A
:10107B0008DFF48029E493A3F85407240CC8C33386
:10108B00C4540F4420C8834004F456800146F6DF55
:10109B00E4800B0102040810204080900003E47EE2
:1010AB00019360BCA3FF543F30E509541FFEE4934A
:1010BB00A360010ECF54C025E060A840B8E493A311
:1010CB00FAE493A3F8E493A3C8C582C8CAC583CA3C
:1010DB00F0A3C8C582C8CAC583CADFE9DEE780BEF4
:0100250000DA
:00000001FF
