:10001E000080000000000000000000000000000052
:10002E000080000000000000000000000000000042
:10003E000080000000000000000000000000000032
:10004E000080000000000000000000000000000022
:10005E000080000000000000000000000000000012
:10006E000080000000000000000000000000000002
:10007E0000800000000000000000000000000000F2
:10008E0000800000000000000000000000000000E2
:10009E0000800000000000000000000000000000D2
:1000AE0000800000000000000000000000000000C2
:1000BE0000800000000000000000000000000000B2
:1000CE0000800000000000000000000000000000A2
:1000DE000080000000000000000000000000000092
:1000EE000080000000000000000000000000000082
:1000FE000080000000000000000000000000000072
:10010E000080000000000000000000000000000061
:10011E000080000000000000000000000000000051
:10012E000080000000000000000000000000000041
:10013E000080000000000000000000000000000031
:10014E000080000000000000000000000000000021
:10015E000080000000000000000000000000000011
:10016E000080000000000000000000000000000001
:10017E0000800000000000000000000000000000F1
:10018E0000800000000000000000000000000000E1
:10019E0000C0000000000000000000000000000091
:1001AE0000800000000000000000000000000000C1
:1001BE0000800000000000000000000000000000B1
:1001CE0000800000000000000000000000000000A1
:1001DE000080000000000000000000000000000091
:1001EE000080000000000000000000000000000081
:1001FE000080000000000000000000000000000071
:10020E000080000000000000000000000000000060
:10021E000080000000000000000000000000000050
:10022E000080000000000000000000000000000040
:10023E000080000000000000000000000000000030
:10024E000080000000000000000000000000000020
:10025E000080000000000000000000000000000010
:10026E000080000000000000000000000000000000
:10027E0000800000000000000000000000000000F0
:10028E0000800000000000000000000000000000E0
:10029E0000800000000000000000000000000000D0
:1002AE0000800000000000000000000000000000C0
:1002BE0000800000000000000000000000000000B0
:1002CE0000800000000000000000000000000000A0
:1002DE000080000000000000000000000000000090
:1002EE000080000000000000000000000000000080
:1002FE000080000000000000000000000000000070
:10030E000080000800008000080000800008000047
:10031E0000FFFFFFFFFFFFFFFFFFFFFFFFFFFFFFDE
:10032E0000000000000000000000000000000000BF
:10033E0000000000000000000000000000000000AF
:10034E00000000000000000000000000000000009F
:10035E00000000000000000000000000000000008F
:10036E00000000000000000000000000000000007F
:10037E00000000000000000000000000000000006F
:10038E00000000000000000000000000000000005F
:10039E003EF3E70000117C01E0780000044000000D
:1003AE00208A08B000110C011044C0000440000067
:1003BE00208A08B0001118011044C000044000004B
:1003CE003EF3E880001F3001E0780000044000009A
:1003DE0020C208B0001130010F40000004400000A0
:1003EE0020A20BB0001160010040C00006C000004A
:1003FE0020920980001160010040C00003800000BF
:10040E00208BE7C000117C010040000001000000BD
:0B108900EF1FAC0670011E4C70F62239
:040FB6007F0A7E0030
:100FBA00E4FDFCC3ED9FEC9E5015E4FBFA0BBB006D
:0F0FCA00010AEB64404A70F50DBD00010C80E494
:010FD90022F5
:10105500D287C2A0D2A1C2A27F327E00121089A27D
:07106500879200C2A2A20065
:01106C002261
:050FDA00E5112480FF79
:100FDF00AD07121055B340FAC2A0C2A1C2A28D80B4
:0F0FEF007F057E00120FBAD2A2120FBAC2A22241
:0A0F8D00AB08AA09A90A120683FFA7
:100F9700AD07121055B340FAD2A0C2A1C2A28D80EC
:0F0FA7007F057E00120FBAD2A2120FBAC2A22289
:100FFE0012105550FB7580FFD2A0D2A1C2A2D2A270
:0D100E00AD807F327E00121089C2A2AF05B6
:01101B0022B2
:100F5C00D2A37F30120FDF7F057E00120FBA7F0CF9
:100F6C00120FDF7F057E00120FBA7F01120FDF7F99
:100F7C00057E00120FBA0F120FDF7F057E00020FE5
:010F8C00BAAA
:100B5B007F34120FDF750880E4F509AF0805081222
:100B6B000FDF7F80120FDFE4F9E4FF120F9709B953
:100B7B0010F70509E509C3942040E0750880E4F5FA
:100B8B0009AF080508120FDF7F88120FDFE4F9E4C5
:100B9B00FF120F9709B910F70509E509C394204017
:0B0BAB00E07F36120FDF7F30020FDF0B
:0D0981007F037E00120FBA7BFF7A00791E03
:06098E008B088A09890AAA
:100994007F34120FDF750B80E4F50CAF0B050B12DF
:1009A4000FDF7F80120FDFE4F50D120F8D74012528
:1009B4000AF50AE43509F509050DE50DC39410405F
:1009C400E9050CE50CC3942040D1750B80E4F50CCB
:1009D400AF0B050B120FDF7F88120FDFE4F50D124A
:1009E4000F8D7401250AF50AE43509F509050DE5AD
:1009F4000DC3941040E9050CE50CC3942040D17F4D
:090A040036120FDF7F30020FDF14
:0308ED002404FDE3
:0408F0008F0FA905B8
:1008F4007F34120FDF7F36120FDFE50FC4540FF57C
:1009040012E50F540FF513E9C394205004891180A4
:100914000BE924E0F51174082512F512120FDAE53B
:10092400122480FF120FDF120FFE120FFE8F10121F
:100934000FFEA907120FDAE5122480FF120FDFE57C
:1009440013C394085015C374079513FF7401A807C3
:10095400088002C333D8FC42108013C3740F95136C
:10096400FF7401A807088002C333D8FC4201AF100A
:0D097400120F97AF01120F977F30020FDFB7
:040D50008F0C8D0D6A
:100D5400E4F50EE50C250EFFAD0D1208F0E50C25AB
:100D64000EFFE50D1208ED050EE50EC3940340E3F6
:100D7400E4F50EE50D04250EFDAF0C1208F0E50CAC
:100D84002402FFE50D04250EFD1208F0050EE50E04
:050D9400C3940440DEE1
:010D99002237
:04101C008F0C8D0D9B
:10102000E4F50EE50C04FFE50D250EFD1208F005B4
:081030000EE50EC3940540EB30
:011038002295
:040EF1008F0C8D0DC8
:100EF500E4F50EE50C250EFFAD0D1208F0E50C2509
:100F05000EFFE50D1208EDE50C2402C3950EFFE575
:100F15000D04250EFD1208F0050EE50EC3940340E1
:010F2500D2F9
:010F260022A8
:040D03008F0C8D0DB7
:100D0700E4F50EE50C250EFFAD0D1208F0E50C25F8
:100D17000EFFE50D2402FD1208F0E50C250EFFE598
:100D27000D2404FD1208F0050EE50EC3940340D30D
:100D3700E50C2402FFE50D04FD1208F0E50C240282
:090D4700FFE50D2403FD0208F094
:040E76008F0C8D0D43
:100E7A00E4F50EE50D04250EFDAF0C1208F0050E83
:100E8A00E50EC3940240ECE4F50EE50C04FFE50D13
:100E9A00250EFD1208F0050EE50EC3940540EBE59C
:0C0EAA000C2402FFE50D2402FD0208F0FC
:040D9A008F0C8D0D20
:100D9E00E4F50EE50C250EFFAD0D1208F0E50C2561
:100DAE000EFFE50D2402FD1208F0E50C250EFFE501
:100DBE000D2404FD1208F0050EE50EC3940340D376
:100DCE00E50D04FDAF0C1208F0E50C2402FFE50D55
:060DDE002403FD0208F0F1
:040C10008F0C8D0DAB
:100C1400E4F50EE50C250EFFAD0D1208F0E50C25EC
:100C24000EFFE50D2402FD1208F0E50C250EFFE58C
:100C34000D2404FD1208F0050EE50EC3940340D301
:100C4400E50D04FDAF0C1208F0E50C2402FFE50DE0
:100C54002403FD1208F0E50D2403FDAF0C0208F097
:040F27008F0C8D0D91
:100F2B00E4F50EE50C250EFFAD0D1208F0050EE5F0
:100F3B000EC3940340EDE4F50EE50C2402FFE50D22
:100F4B0004250EFD1208F0050EE50EC3940440E9CE
:010F5B002273
:040E2E008F0C8D0D8B
:100E3200E4F50EE50D250EFDAF0C1208F0E50C24CD
:100E420002FFE50D250EFD1208F0050EE50EC39416
:100E52000540E0E50C04FFAD0D1208F0E50C04FFBF
:100E6200E50D2402FD1208F0E50C04FFE50D240453
:040E7200FD0208F085
:040C64008F0C8D0D57
:100C6800E4F50EE50D250EFDAF0C1208F0E50C2499
:100C780002FFE50D250EFD1208F0050EE50EC394E2
:100C88000340E0E4F50EE50C04FFE50E25E0250D34
:100C9800FD1208F0E50C2402FFE50D250E2403FDE6
:0C0CA8001208F0050EE50EC3940240DABD
:010CB400221D
:100A0D008F0A8D0BEBB40A00506B900A1EF8282844
:100A1D0073020A3C020A43020A4A020A51020A58A8
:100A2D00020A5F020A66020A6D020A74020A7BADAF
:100A3D000BAF0A020D50AD0BAF0A02101CAD0BAF80
:100A4D000A020EF1AD0BAF0A020D03AD0BAF0A0298
:100A5D000E76AD0BAF0A020D9AAD0BAF0A020C105C
:100A6D00AD0BAF0A020F27AD0BAF0A020E2EAD0B69
:060A7D00AF0A120C642216
:100711008F088D097F01120FDF120FB67D3F7F5DBC
:100721001208F0E50875F002A4C3940AE5F06480AC
:100731009480E508500925E0FB7D327F1B802D75F3
:10074100F002A4FFAEF07C007D0A1206AEAB077D7D
:10075100327F1B120A0DE50875F002A4FFAEF07C92
:10076100007D0A1206AEAB057D327F20120A0DE52F
:100771000875F004A4C3940AE5F064809480E50848
:10078100500B25E025E0FB7D327F2F802D75F00495
:10079100A4FFAEF07C007D0A1206AEAB077D327F6E
:1007A1002F120A0DE50875F004A4FFAEF07C007D60
:1007B1000A1206AEAB057D327F34120A0DE50875CB
:1007C100F006A4C3940AE5F064809480E50875F00E
:1007D100065008A4FB7D327F43802AA4FFAEF07C43
:1007E100007D0A1206AEAB077D327F43120A0DE58A
:1007F1000875F006A4FFAEF07C007D0A1206AEABD0
:10080100057D327F48120A0DE50875F008A4C394EE
:100811000AE5F064809480E50875F0085008A4FBAF
:100821007D327F57802AA4FFAEF07C007D0A12063C
:10083100AEAB077D327F57120A0DE50875F008A4AB
:10084100FFAEF07C007D0A1206AEAB057D327F5C07
:10085100120A0DE50875F00AA4FFAEF07C007D0ACE
:100861001206AEAB077D327F6B120A0DE50875F0FB
:100871000AA4FFAEF07C007D0A1206AEAB057D3204
:100881007F70120A0DE50975F002A4C3940AE5F020
:1008910064809480E509500525E0FB802875F0020D
:1008A100A4FFAEF07C007D0A1206AEAB07E4FDFFAB
:1008B100120A0DE50975F002A4FFAEF07C007D0A75
:1008C1001206AEAB05E4FD7F04120A0DAB097D16DD
:1008D1007F04120A0DE4FB7D2C7F04120A0D7D3A80
:0C08E1007F5F120D507F037E00020FBAF3
:100A83008F088D097F01120FDF120FB6E508C3949B
:100A93000A5004AB08802BE50875F002A4FFAEF002
:100AA3007C007D0A1206AEAB077D3A7F1F120A0D4A
:100AB300E50875F002A4FFAEF07C007D0A1206AED5
:100AC300AB057D3A7F23120A0DE509C3940A50044E
:100AD300AB098016E50975F00A84FB7D3A7F551250
:100AE3000A0DE50975F00A84ABF07D3A7F59120AC5
:020AF3000D22D2
:100CB50020970C120FB62097063097FD9000012063
:100CC500B40C120FB620B40630B4FD90000220B665
:100CD5000C120FB620B60630B6FD90000320B70CF7
:100CE500120FB620B70630B7FD90000420B50C12E0
:0D0CF5000FB620B50630B5FD900005AF82AA
:010D020022CE
:100BB600120CB5EF24FD601C14602A14603924035E
:100BC6007041120B5B1209810516E5166406703337
:100BD600F516802F120B5B1209811516E516702388
:100BE600751601801E120B5B1209810514E514B4FB
:100BF6000A11E4F514800C120B5B120981D514035B
:0A0C0600751409AD16AF14020711B2
:10106D00759D0275A20475BC817F0A7E00021089F0
:100EB600E4FFF5BDF5BE43BC08EF7007E5BC541072
:100EC600FF80F653BCEF7F017E00121089AFBDAFE5
:100ED600BDEFFEADBE7C00E42DFFEC3EFE7D0512AF
:0A0EE600069CEE1313543FFF7E003C
:010EF00022DF
:100AF500E4F508AF080508EF603F120EB6E50825D6
:100B0500E02400F8EEF208EFF2E50825E02400F80D
:100B1500E2FC08E2FDE41205C97B777ABE799F788D
:100B25003D1205271206028F09E508240BFFC37441
:100B3500309509FD1208F080BAAC09E41205CE7BA8
:100B4500777ABE799F783D12041E1206028F1953DB
:050B5500BCF753BC7F5A
:010B5A002278
:100DE400758911758C3C758AAF758D3C758BAFD246
:100DF400ABD28ED2AAD28AD2A9D28CD2AFE4F515C4
:100E0400D29075140175160112106D120F5C120B3D
:100E14005B120981120BB6120AF5AD19AF18120A4A
:0A0E2400837F507EC3120FBA80E4F2
:03000B00021039A7
:10103900C0E0C0D0758D3C758BAF0517E517B414AA
:0C10490006851518751500D0D0D0E032D7
:03001300020003E5
:03000300051532AE
:03001B000210943C
:09109400758D3C758BAFB29032F2
:10041E00EC4D6011E8497017ED33EC3304600DE4D8
:10042E00FCFFFEFD22E933E8330470F802066E127B
:10043E00063958046009E4CC24815006285009027C
:10044E000678284003020675C0E0EB4A7044B98076
:10045E0006D0E0FB020664EF4E701CBD8008EBFF79
:10046E00EAFEE9FD80EBE98DF0A4FEE5F00205075A
:10047E00E9CDF9EAFEEBFFEF89F0A4FCE5F0CE89B9
:10048E00F0A42EFFE435F0CD89F0A42DFEE435F076
:10049E008067EF4E7005BD80D780C3EF8BF0A4ACA4
:1004AE00F0EE8BF0A42CFCE435F0F8EF8AF0A42CDF
:1004BE00E5F038FCE433CB8DF0A42CFCE5F03BF8F2
:1004CE00EE8AF0A42CFCE5F038F8E433CF89F0A4E2
:1004DE002CFCE5F038CF3400CE89F0A42FFFE5F0E8
:1004EE003EFEE433C98DF0A42EFEE5F039CD8AF040
:1004FE00A42FFFE5F03EFEE43DFD33D0E0FB5007B8
:10050E000BBB000F020678EC2CFCEF33FFEE33FE34
:06051E00ED33FD02065062
:10052400020678EC5D046005E85904700302066E67
:10053400120639580460F6EC4860F2EC7004FDFED3
:10054400FF22C860DB2481C85009C39860025006AA
:100554000206759850CAF582E9294B4A7005AB82A8
:1005640002066475F0007C1A7880C3EF9BEE9AED66
:1005740099400DC3EF9BFFEE9AFEED99FDE842F022
:10058400DC23ACF0D0E0FFD0E0FED0E0FDAB822075
:10059400E7101BEB60BAEC2CFCEF33FFEE33FEEDFF
:1005A40033FD020650E803F830E705C0F075F000AB
:1005B400EF2FFFEE33FEED33FD40B830E7C280AAE3
:1005C40075F020800E75F010800575F0087D007EB2
:1005D400007F003392D530D503120703EC3340106B
:1005E400EF33FFEE33FEED33FDEC33FCD5F0ED22BB
:0E05F400E5F0247EA2D513CC92E7CDCEFF22F7
:10060200EDD2E7CD33EC3392D524814006E4FFFEF0
:10061200FDFC22FCE4CFCECDCC24E0501174FF804F
:10062200EDC3CC13CCCD13CDCE13CECF13CF0470EC
:07063200F030D5DE020703E2
:10063900E9D2E7C933E833F892D5EDD2E7CD33EC07
:0706490033FC5002B2D52280
:10065000EC30E7100FBF000C0EBE00080DBD00040B
:100660000BEB6014A2D5EB13FCED92E7FD2274FFB7
:10067000FCFDFEFF22E480F8A2D574FF13FC7D8010
:03068000E480EF24
:0300000002107D6E
:0C107D00787FE4F6D8FD758120020DE4B8
:10068300BB010689828A83E0225002E722BBFE0275
:09069300E32289828A83E49322A8
:10069C00EF8DF0A4A8F0CF8CF0A428CE8DF0A42E72
:0206AC00FE222C
:1006AE00BC000BBE0029EF8DF084FFADF022E4CC30
:1006BE00F875F008EF2FFFEE33FEEC33FCEE9DECF9
:1006CE00984005FCEE9DFE0FD5F0E9E4CEFD22ED3F
:1006DE00F8F5F0EE8420D21CFEADF075F008EF2F89
:1006EE00FFED33FD4007985006D5F0F222C398FD7A
:0506FE000FD5F0EA2217
:0E070300C3E49FFFE49EFEE49DFDE49CFC2207
:00000001FF
